{
  "_format": "hh-sol-artifact-1",
  "contractName": "TokenizedBallotV2",
  "sourceName": "contracts/TokenizedBallotV2.sol",
  "abi": [
    {
      "inputs": [
        {
          "internalType": "bytes32[]",
          "name": "proposalNames",
          "type": "bytes32[]"
        },
        {
          "internalType": "address",
          "name": "_tokenContract",
          "type": "address"
        },
        {
          "internalType": "uint256",
          "name": "_targetBlockNumber",
          "type": "uint256"
        }
      ],
      "stateMutability": "nonpayable",
      "type": "constructor"
    },
    {
      "anonymous": false,
      "inputs": [
        {
          "indexed": true,
          "internalType": "address",
          "name": "previousOwner",
          "type": "address"
        },
        {
          "indexed": true,
          "internalType": "address",
          "name": "newOwner",
          "type": "address"
        }
      ],
      "name": "OwnershipTransferred",
      "type": "event"
    },
    {
      "anonymous": false,
      "inputs": [
        {
          "indexed": true,
          "internalType": "address",
          "name": "sender",
          "type": "address"
        },
        {
          "indexed": false,
          "internalType": "uint256",
          "name": "prevTargetBlock",
          "type": "uint256"
        },
        {
          "indexed": false,
          "internalType": "uint256",
          "name": "newTargetBlock",
          "type": "uint256"
        }
      ],
      "name": "SetTargetBlock",
      "type": "event"
    },
    {
      "anonymous": false,
      "inputs": [
        {
          "indexed": true,
          "internalType": "address",
          "name": "sender",
          "type": "address"
        },
        {
          "indexed": false,
          "internalType": "uint256",
          "name": "proposal",
          "type": "uint256"
        },
        {
          "indexed": false,
          "internalType": "uint256",
          "name": "amount",
          "type": "uint256"
        }
      ],
      "name": "Vote",
      "type": "event"
    },
    {
      "inputs": [],
      "name": "owner",
      "outputs": [
        {
          "internalType": "address",
          "name": "",
          "type": "address"
        }
      ],
      "stateMutability": "view",
      "type": "function"
    },
    {
      "inputs": [],
      "name": "proposalCount",
      "outputs": [
        {
          "internalType": "uint256",
          "name": "count",
          "type": "uint256"
        }
      ],
      "stateMutability": "view",
      "type": "function"
    },
    {
      "inputs": [
        {
          "internalType": "uint256",
          "name": "",
          "type": "uint256"
        }
      ],
      "name": "proposals",
      "outputs": [
        {
          "internalType": "bytes32",
          "name": "name",
          "type": "bytes32"
        },
        {
          "internalType": "uint256",
          "name": "voteCount",
          "type": "uint256"
        }
      ],
      "stateMutability": "view",
      "type": "function"
    },
    {
      "inputs": [],
      "name": "renounceOwnership",
      "outputs": [],
      "stateMutability": "nonpayable",
      "type": "function"
    },
    {
      "inputs": [
        {
          "internalType": "uint256",
          "name": "newBlockNumber",
          "type": "uint256"
        }
      ],
      "name": "setTargetBlockNumber",
      "outputs": [],
      "stateMutability": "nonpayable",
      "type": "function"
    },
    {
      "inputs": [],
      "name": "targetBlockNumber",
      "outputs": [
        {
          "internalType": "uint256",
          "name": "",
          "type": "uint256"
        }
      ],
      "stateMutability": "view",
      "type": "function"
    },
    {
      "inputs": [],
      "name": "tokenContract",
      "outputs": [
        {
          "internalType": "contract IMyToken",
          "name": "",
          "type": "address"
        }
      ],
      "stateMutability": "view",
      "type": "function"
    },
    {
      "inputs": [
        {
          "internalType": "address",
          "name": "newOwner",
          "type": "address"
        }
      ],
      "name": "transferOwnership",
      "outputs": [],
      "stateMutability": "nonpayable",
      "type": "function"
    },
    {
      "inputs": [
        {
          "internalType": "uint256",
          "name": "proposal",
          "type": "uint256"
        },
        {
          "internalType": "uint256",
          "name": "amount",
          "type": "uint256"
        }
      ],
      "name": "vote",
      "outputs": [],
      "stateMutability": "nonpayable",
      "type": "function"
    },
    {
      "inputs": [
        {
          "internalType": "address",
          "name": "account",
          "type": "address"
        }
      ],
      "name": "votingPower",
      "outputs": [
        {
          "internalType": "uint256",
          "name": "",
          "type": "uint256"
        }
      ],
      "stateMutability": "view",
      "type": "function"
    },
    {
      "inputs": [
        {
          "internalType": "address",
          "name": "",
          "type": "address"
        }
      ],
      "name": "votingPowerSpent",
      "outputs": [
        {
          "internalType": "uint256",
          "name": "",
          "type": "uint256"
        }
      ],
      "stateMutability": "view",
      "type": "function"
    },
    {
      "inputs": [],
      "name": "winnerName",
      "outputs": [
        {
          "internalType": "bytes32",
          "name": "winnerName_",
          "type": "bytes32"
        }
      ],
      "stateMutability": "view",
      "type": "function"
    },
    {
      "inputs": [],
      "name": "winningProposal",
      "outputs": [
        {
          "internalType": "uint256",
          "name": "winningProposal_",
          "type": "uint256"
        }
      ],
      "stateMutability": "view",
      "type": "function"
    }
  ],
  "bytecode": "0x608060405234801561000f575f80fd5b50604051610ac3380380610ac383398101604081905261002e91610152565b610037336100d4565b600280546001600160a01b0319166001600160a01b03841617905560038190555f5b83518110156100cb576001604051806040016040528086848151811061008157610081610224565b60209081029190910181015182525f9181018290528354600181810186559483529181902083516002909302019182559190910151910155806100c381610238565b915050610059565b5050505061025c565b5f80546001600160a01b038381166001600160a01b0319831681178455604051919092169283917f8be0079c531659141344cd1fd0a4f28419497f9722a3daafe3b4186f6b6457e09190a35050565b634e487b7160e01b5f52604160045260245ffd5b80516001600160a01b038116811461014d575f80fd5b919050565b5f805f60608486031215610164575f80fd5b83516001600160401b038082111561017a575f80fd5b818601915086601f83011261018d575f80fd5b81516020828211156101a1576101a1610123565b8160051b604051601f19603f830116810181811086821117156101c6576101c6610123565b60405292835281830193508481018201928a8411156101e3575f80fd5b948201945b83861015610201578551855294820194938201936101e8565b97506102109050888201610137565b955050505050604084015190509250925092565b634e487b7160e01b5f52603260045260245ffd5b5f6001820161025557634e487b7160e01b5f52601160045260245ffd5b5060010190565b61085a806102695f395ff3fe608060405234801561000f575f80fd5b50600436106100da575f3560e01c80638da5cb5b11610088578063c07473f611610063578063c07473f6146101db578063da35c664146101ee578063e2ba53f0146101f6578063f2fde38b146101fe575f80fd5b80638da5cb5b1461018c578063a7200351146101a9578063b384abef146101c8575f80fd5b806355a373d6116100b857806355a373d614610137578063609ff1bd1461017c578063715018a614610184575f80fd5b8063013cf08b146100de5780632a8cd29e1461010b57806332da83e814610122575b5f80fd5b6100f16100ec3660046106e5565b610211565b604080519283526020830191909152015b60405180910390f35b61011460035481565b604051908152602001610102565b6101356101303660046106e5565b61023d565b005b6002546101579073ffffffffffffffffffffffffffffffffffffffff1681565b60405173ffffffffffffffffffffffffffffffffffffffff9091168152602001610102565b61011461028d565b610135610305565b5f5473ffffffffffffffffffffffffffffffffffffffff16610157565b6101146101b73660046106fc565b60046020525f908152604090205481565b6101356101d6366004610736565b610318565b6101146101e93660046106fc565b610448565b600154610114565b61011461050b565b61013561020c3660046106fc565b61053a565b60018181548110610220575f80fd5b5f9182526020909120600290910201805460019091015490915082565b6102456105f1565b6003805490829055604080518281526020810184905233917f1f5a8589ca0ac927963c55508a0f73383f887bc4ad399b23e5fed4bb76bdc65791015b60405180910390a25050565b5f80805b6001548110156103005781600182815481106102af576102af610756565b905f5260205f2090600202016001015411156102ee57600181815481106102d8576102d8610756565b905f5260205f2090600202016001015491508092505b806102f8816107b0565b915050610291565b505090565b61030d6105f1565b6103165f610671565b565b8061032233610448565b10156103b5576040517f08c379a000000000000000000000000000000000000000000000000000000000815260206004820152603160248201527f546f6b656e697a656442616c6c6f743a20747279696e6720746f20766f74652060448201527f6d6f7265207468616e20616c6c6f77656400000000000000000000000000000060648201526084015b60405180910390fd5b335f90815260046020526040812080548392906103d39084906107e7565b9250508190555080600183815481106103ee576103ee610756565b905f5260205f2090600202016001015f82825461040b91906107e7565b9091555050604080518381526020810183905233917fafd3f234c1f8e944129b26b206d98e5752ad3336a4059938b4a3e990e95885309101610281565b73ffffffffffffffffffffffffffffffffffffffff8181165f8181526004602081905260408083205460025460035492517f3a46b1a80000000000000000000000000000000000000000000000000000000081529384019590955260248301919091529193919290911690633a46b1a890604401602060405180830381865afa1580156104d7573d5f803e3d5ffd5b505050506040513d601f19601f820116820180604052508101906104fb91906107fa565b6105059190610811565b92915050565b5f600161051661028d565b8154811061052657610526610756565b905f5260205f2090600202015f0154905090565b6105426105f1565b73ffffffffffffffffffffffffffffffffffffffff81166105e5576040517f08c379a000000000000000000000000000000000000000000000000000000000815260206004820152602660248201527f4f776e61626c653a206e6577206f776e657220697320746865207a65726f206160448201527f646472657373000000000000000000000000000000000000000000000000000060648201526084016103ac565b6105ee81610671565b50565b5f5473ffffffffffffffffffffffffffffffffffffffff163314610316576040517f08c379a000000000000000000000000000000000000000000000000000000000815260206004820181905260248201527f4f776e61626c653a2063616c6c6572206973206e6f7420746865206f776e657260448201526064016103ac565b5f805473ffffffffffffffffffffffffffffffffffffffff8381167fffffffffffffffffffffffff0000000000000000000000000000000000000000831681178455604051919092169283917f8be0079c531659141344cd1fd0a4f28419497f9722a3daafe3b4186f6b6457e09190a35050565b5f602082840312156106f5575f80fd5b5035919050565b5f6020828403121561070c575f80fd5b813573ffffffffffffffffffffffffffffffffffffffff8116811461072f575f80fd5b9392505050565b5f8060408385031215610747575f80fd5b50508035926020909101359150565b7f4e487b71000000000000000000000000000000000000000000000000000000005f52603260045260245ffd5b7f4e487b71000000000000000000000000000000000000000000000000000000005f52601160045260245ffd5b5f7fffffffffffffffffffffffffffffffffffffffffffffffffffffffffffffffff82036107e0576107e0610783565b5060010190565b8082018082111561050557610505610783565b5f6020828403121561080a575f80fd5b5051919050565b818103818111156105055761050561078356fea26469706673582212209deadfaa9c3ab62c601e025323a7a0c90b606a8e952ebce485350a8717e0629a64736f6c63430008150033",
  "linkReferences": {},
  "deployedLinkReferences": {}
}