{
  "_format": "hh-sol-artifact-1",
  "contractName": "MyToken",
  "sourceName": "contracts/MyToken.sol",
  "abi": [
    {
      "inputs": [],
      "stateMutability": "nonpayable",
      "type": "constructor"
    },
    {
      "inputs": [],
      "name": "InvalidShortString",
      "type": "error"
    },
    {
      "inputs": [
        {
          "internalType": "string",
          "name": "str",
          "type": "string"
        }
      ],
      "name": "StringTooLong",
      "type": "error"
    },
    {
      "anonymous": false,
      "inputs": [
        {
          "indexed": true,
          "internalType": "address",
          "name": "owner",
          "type": "address"
        },
        {
          "indexed": true,
          "internalType": "address",
          "name": "spender",
          "type": "address"
        },
        {
          "indexed": false,
          "internalType": "uint256",
          "name": "value",
          "type": "uint256"
        }
      ],
      "name": "Approval",
      "type": "event"
    },
    {
      "anonymous": false,
      "inputs": [
        {
          "indexed": true,
          "internalType": "address",
          "name": "delegator",
          "type": "address"
        },
        {
          "indexed": true,
          "internalType": "address",
          "name": "fromDelegate",
          "type": "address"
        },
        {
          "indexed": true,
          "internalType": "address",
          "name": "toDelegate",
          "type": "address"
        }
      ],
      "name": "DelegateChanged",
      "type": "event"
    },
    {
      "anonymous": false,
      "inputs": [
        {
          "indexed": true,
          "internalType": "address",
          "name": "delegate",
          "type": "address"
        },
        {
          "indexed": false,
          "internalType": "uint256",
          "name": "previousBalance",
          "type": "uint256"
        },
        {
          "indexed": false,
          "internalType": "uint256",
          "name": "newBalance",
          "type": "uint256"
        }
      ],
      "name": "DelegateVotesChanged",
      "type": "event"
    },
    {
      "anonymous": false,
      "inputs": [],
      "name": "EIP712DomainChanged",
      "type": "event"
    },
    {
      "anonymous": false,
      "inputs": [
        {
          "indexed": true,
          "internalType": "bytes32",
          "name": "role",
          "type": "bytes32"
        },
        {
          "indexed": true,
          "internalType": "bytes32",
          "name": "previousAdminRole",
          "type": "bytes32"
        },
        {
          "indexed": true,
          "internalType": "bytes32",
          "name": "newAdminRole",
          "type": "bytes32"
        }
      ],
      "name": "RoleAdminChanged",
      "type": "event"
    },
    {
      "anonymous": false,
      "inputs": [
        {
          "indexed": true,
          "internalType": "bytes32",
          "name": "role",
          "type": "bytes32"
        },
        {
          "indexed": true,
          "internalType": "address",
          "name": "account",
          "type": "address"
        },
        {
          "indexed": true,
          "internalType": "address",
          "name": "sender",
          "type": "address"
        }
      ],
      "name": "RoleGranted",
      "type": "event"
    },
    {
      "anonymous": false,
      "inputs": [
        {
          "indexed": true,
          "internalType": "bytes32",
          "name": "role",
          "type": "bytes32"
        },
        {
          "indexed": true,
          "internalType": "address",
          "name": "account",
          "type": "address"
        },
        {
          "indexed": true,
          "internalType": "address",
          "name": "sender",
          "type": "address"
        }
      ],
      "name": "RoleRevoked",
      "type": "event"
    },
    {
      "anonymous": false,
      "inputs": [
        {
          "indexed": true,
          "internalType": "address",
          "name": "from",
          "type": "address"
        },
        {
          "indexed": true,
          "internalType": "address",
          "name": "to",
          "type": "address"
        },
        {
          "indexed": false,
          "internalType": "uint256",
          "name": "value",
          "type": "uint256"
        }
      ],
      "name": "Transfer",
      "type": "event"
    },
    {
      "inputs": [],
      "name": "CLOCK_MODE",
      "outputs": [
        {
          "internalType": "string",
          "name": "",
          "type": "string"
        }
      ],
      "stateMutability": "view",
      "type": "function"
    },
    {
      "inputs": [],
      "name": "DEFAULT_ADMIN_ROLE",
      "outputs": [
        {
          "internalType": "bytes32",
          "name": "",
          "type": "bytes32"
        }
      ],
      "stateMutability": "view",
      "type": "function"
    },
    {
      "inputs": [],
      "name": "DOMAIN_SEPARATOR",
      "outputs": [
        {
          "internalType": "bytes32",
          "name": "",
          "type": "bytes32"
        }
      ],
      "stateMutability": "view",
      "type": "function"
    },
    {
      "inputs": [],
      "name": "MINTER_ROLE",
      "outputs": [
        {
          "internalType": "bytes32",
          "name": "",
          "type": "bytes32"
        }
      ],
      "stateMutability": "view",
      "type": "function"
    },
    {
      "inputs": [
        {
          "internalType": "address",
          "name": "owner",
          "type": "address"
        },
        {
          "internalType": "address",
          "name": "spender",
          "type": "address"
        }
      ],
      "name": "allowance",
      "outputs": [
        {
          "internalType": "uint256",
          "name": "",
          "type": "uint256"
        }
      ],
      "stateMutability": "view",
      "type": "function"
    },
    {
      "inputs": [
        {
          "internalType": "address",
          "name": "spender",
          "type": "address"
        },
        {
          "internalType": "uint256",
          "name": "amount",
          "type": "uint256"
        }
      ],
      "name": "approve",
      "outputs": [
        {
          "internalType": "bool",
          "name": "",
          "type": "bool"
        }
      ],
      "stateMutability": "nonpayable",
      "type": "function"
    },
    {
      "inputs": [
        {
          "internalType": "address",
          "name": "account",
          "type": "address"
        }
      ],
      "name": "balanceOf",
      "outputs": [
        {
          "internalType": "uint256",
          "name": "",
          "type": "uint256"
        }
      ],
      "stateMutability": "view",
      "type": "function"
    },
    {
      "inputs": [
        {
          "internalType": "address",
          "name": "account",
          "type": "address"
        },
        {
          "internalType": "uint32",
          "name": "pos",
          "type": "uint32"
        }
      ],
      "name": "checkpoints",
      "outputs": [
        {
          "components": [
            {
              "internalType": "uint32",
              "name": "fromBlock",
              "type": "uint32"
            },
            {
              "internalType": "uint224",
              "name": "votes",
              "type": "uint224"
            }
          ],
          "internalType": "struct ERC20Votes.Checkpoint",
          "name": "",
          "type": "tuple"
        }
      ],
      "stateMutability": "view",
      "type": "function"
    },
    {
      "inputs": [],
      "name": "clock",
      "outputs": [
        {
          "internalType": "uint48",
          "name": "",
          "type": "uint48"
        }
      ],
      "stateMutability": "view",
      "type": "function"
    },
    {
      "inputs": [],
      "name": "decimals",
      "outputs": [
        {
          "internalType": "uint8",
          "name": "",
          "type": "uint8"
        }
      ],
      "stateMutability": "view",
      "type": "function"
    },
    {
      "inputs": [
        {
          "internalType": "address",
          "name": "spender",
          "type": "address"
        },
        {
          "internalType": "uint256",
          "name": "subtractedValue",
          "type": "uint256"
        }
      ],
      "name": "decreaseAllowance",
      "outputs": [
        {
          "internalType": "bool",
          "name": "",
          "type": "bool"
        }
      ],
      "stateMutability": "nonpayable",
      "type": "function"
    },
    {
      "inputs": [
        {
          "internalType": "address",
          "name": "delegatee",
          "type": "address"
        }
      ],
      "name": "delegate",
      "outputs": [],
      "stateMutability": "nonpayable",
      "type": "function"
    },
    {
      "inputs": [
        {
          "internalType": "address",
          "name": "delegatee",
          "type": "address"
        },
        {
          "internalType": "uint256",
          "name": "nonce",
          "type": "uint256"
        },
        {
          "internalType": "uint256",
          "name": "expiry",
          "type": "uint256"
        },
        {
          "internalType": "uint8",
          "name": "v",
          "type": "uint8"
        },
        {
          "internalType": "bytes32",
          "name": "r",
          "type": "bytes32"
        },
        {
          "internalType": "bytes32",
          "name": "s",
          "type": "bytes32"
        }
      ],
      "name": "delegateBySig",
      "outputs": [],
      "stateMutability": "nonpayable",
      "type": "function"
    },
    {
      "inputs": [
        {
          "internalType": "address",
          "name": "account",
          "type": "address"
        }
      ],
      "name": "delegates",
      "outputs": [
        {
          "internalType": "address",
          "name": "",
          "type": "address"
        }
      ],
      "stateMutability": "view",
      "type": "function"
    },
    {
      "inputs": [],
      "name": "eip712Domain",
      "outputs": [
        {
          "internalType": "bytes1",
          "name": "fields",
          "type": "bytes1"
        },
        {
          "internalType": "string",
          "name": "name",
          "type": "string"
        },
        {
          "internalType": "string",
          "name": "version",
          "type": "string"
        },
        {
          "internalType": "uint256",
          "name": "chainId",
          "type": "uint256"
        },
        {
          "internalType": "address",
          "name": "verifyingContract",
          "type": "address"
        },
        {
          "internalType": "bytes32",
          "name": "salt",
          "type": "bytes32"
        },
        {
          "internalType": "uint256[]",
          "name": "extensions",
          "type": "uint256[]"
        }
      ],
      "stateMutability": "view",
      "type": "function"
    },
    {
      "inputs": [
        {
          "internalType": "uint256",
          "name": "timepoint",
          "type": "uint256"
        }
      ],
      "name": "getPastTotalSupply",
      "outputs": [
        {
          "internalType": "uint256",
          "name": "",
          "type": "uint256"
        }
      ],
      "stateMutability": "view",
      "type": "function"
    },
    {
      "inputs": [
        {
          "internalType": "address",
          "name": "account",
          "type": "address"
        },
        {
          "internalType": "uint256",
          "name": "timepoint",
          "type": "uint256"
        }
      ],
      "name": "getPastVotes",
      "outputs": [
        {
          "internalType": "uint256",
          "name": "",
          "type": "uint256"
        }
      ],
      "stateMutability": "view",
      "type": "function"
    },
    {
      "inputs": [
        {
          "internalType": "bytes32",
          "name": "role",
          "type": "bytes32"
        }
      ],
      "name": "getRoleAdmin",
      "outputs": [
        {
          "internalType": "bytes32",
          "name": "",
          "type": "bytes32"
        }
      ],
      "stateMutability": "view",
      "type": "function"
    },
    {
      "inputs": [
        {
          "internalType": "address",
          "name": "account",
          "type": "address"
        }
      ],
      "name": "getVotes",
      "outputs": [
        {
          "internalType": "uint256",
          "name": "",
          "type": "uint256"
        }
      ],
      "stateMutability": "view",
      "type": "function"
    },
    {
      "inputs": [
        {
          "internalType": "bytes32",
          "name": "role",
          "type": "bytes32"
        },
        {
          "internalType": "address",
          "name": "account",
          "type": "address"
        }
      ],
      "name": "grantRole",
      "outputs": [],
      "stateMutability": "nonpayable",
      "type": "function"
    },
    {
      "inputs": [
        {
          "internalType": "bytes32",
          "name": "role",
          "type": "bytes32"
        },
        {
          "internalType": "address",
          "name": "account",
          "type": "address"
        }
      ],
      "name": "hasRole",
      "outputs": [
        {
          "internalType": "bool",
          "name": "",
          "type": "bool"
        }
      ],
      "stateMutability": "view",
      "type": "function"
    },
    {
      "inputs": [
        {
          "internalType": "address",
          "name": "spender",
          "type": "address"
        },
        {
          "internalType": "uint256",
          "name": "addedValue",
          "type": "uint256"
        }
      ],
      "name": "increaseAllowance",
      "outputs": [
        {
          "internalType": "bool",
          "name": "",
          "type": "bool"
        }
      ],
      "stateMutability": "nonpayable",
      "type": "function"
    },
    {
      "inputs": [
        {
          "internalType": "address",
          "name": "to",
          "type": "address"
        },
        {
          "internalType": "uint256",
          "name": "amount",
          "type": "uint256"
        }
      ],
      "name": "mint",
      "outputs": [],
      "stateMutability": "nonpayable",
      "type": "function"
    },
    {
      "inputs": [],
      "name": "name",
      "outputs": [
        {
          "internalType": "string",
          "name": "",
          "type": "string"
        }
      ],
      "stateMutability": "view",
      "type": "function"
    },
    {
      "inputs": [
        {
          "internalType": "address",
          "name": "owner",
          "type": "address"
        }
      ],
      "name": "nonces",
      "outputs": [
        {
          "internalType": "uint256",
          "name": "",
          "type": "uint256"
        }
      ],
      "stateMutability": "view",
      "type": "function"
    },
    {
      "inputs": [
        {
          "internalType": "address",
          "name": "account",
          "type": "address"
        }
      ],
      "name": "numCheckpoints",
      "outputs": [
        {
          "internalType": "uint32",
          "name": "",
          "type": "uint32"
        }
      ],
      "stateMutability": "view",
      "type": "function"
    },
    {
      "inputs": [
        {
          "internalType": "address",
          "name": "owner",
          "type": "address"
        },
        {
          "internalType": "address",
          "name": "spender",
          "type": "address"
        },
        {
          "internalType": "uint256",
          "name": "value",
          "type": "uint256"
        },
        {
          "internalType": "uint256",
          "name": "deadline",
          "type": "uint256"
        },
        {
          "internalType": "uint8",
          "name": "v",
          "type": "uint8"
        },
        {
          "internalType": "bytes32",
          "name": "r",
          "type": "bytes32"
        },
        {
          "internalType": "bytes32",
          "name": "s",
          "type": "bytes32"
        }
      ],
      "name": "permit",
      "outputs": [],
      "stateMutability": "nonpayable",
      "type": "function"
    },
    {
      "inputs": [
        {
          "internalType": "bytes32",
          "name": "role",
          "type": "bytes32"
        },
        {
          "internalType": "address",
          "name": "account",
          "type": "address"
        }
      ],
      "name": "renounceRole",
      "outputs": [],
      "stateMutability": "nonpayable",
      "type": "function"
    },
    {
      "inputs": [
        {
          "internalType": "bytes32",
          "name": "role",
          "type": "bytes32"
        },
        {
          "internalType": "address",
          "name": "account",
          "type": "address"
        }
      ],
      "name": "revokeRole",
      "outputs": [],
      "stateMutability": "nonpayable",
      "type": "function"
    },
    {
      "inputs": [
        {
          "internalType": "bytes4",
          "name": "interfaceId",
          "type": "bytes4"
        }
      ],
      "name": "supportsInterface",
      "outputs": [
        {
          "internalType": "bool",
          "name": "",
          "type": "bool"
        }
      ],
      "stateMutability": "view",
      "type": "function"
    },
    {
      "inputs": [],
      "name": "symbol",
      "outputs": [
        {
          "internalType": "string",
          "name": "",
          "type": "string"
        }
      ],
      "stateMutability": "view",
      "type": "function"
    },
    {
      "inputs": [],
      "name": "totalSupply",
      "outputs": [
        {
          "internalType": "uint256",
          "name": "",
          "type": "uint256"
        }
      ],
      "stateMutability": "view",
      "type": "function"
    },
    {
      "inputs": [
        {
          "internalType": "address",
          "name": "to",
          "type": "address"
        },
        {
          "internalType": "uint256",
          "name": "amount",
          "type": "uint256"
        }
      ],
      "name": "transfer",
      "outputs": [
        {
          "internalType": "bool",
          "name": "",
          "type": "bool"
        }
      ],
      "stateMutability": "nonpayable",
      "type": "function"
    },
    {
      "inputs": [
        {
          "internalType": "address",
          "name": "from",
          "type": "address"
        },
        {
          "internalType": "address",
          "name": "to",
          "type": "address"
        },
        {
          "internalType": "uint256",
          "name": "amount",
          "type": "uint256"
        }
      ],
      "name": "transferFrom",
      "outputs": [
        {
          "internalType": "bool",
          "name": "",
          "type": "bool"
        }
      ],
      "stateMutability": "nonpayable",
      "type": "function"
    }
  ],
  "bytecode": "0x61016060405234801562000011575f80fd5b506040518060400160405280600781526020016626bcaa37b5b2b760c91b81525080604051806040016040528060018152602001603160f81b8152506040518060400160405280600981526020016805465737445524332360bc1b815250604051806040016040528060038152602001622a22a960e91b81525081600390816200009c919062000369565b506004620000ab828262000369565b50620000bd91508390506006620001a3565b61012052620000ce816007620001a3565b61014052815160208084019190912060e052815190820120610100524660a0526200015b60e05161010051604080517f8b73c3c69bb8fe3d512ecc4cf759cc79239f7b179b0ffacaa9a75d522b39400f60208201529081019290925260608201524660808201523060a08201525f9060c00160405160208183030381529060405280519060200120905090565b60805250503060c05250620001715f33620001db565b6200019d7f9f2df0fed2c77648de5860a4cc508cd0818c85b8b8a1ab4ceeef8d981c8956a633620001db565b620004a2565b5f602083511015620001c257620001ba836200027e565b9050620001d5565b81620001cf848262000369565b5060ff90505b92915050565b5f8281526005602090815260408083206001600160a01b038516845290915290205460ff166200027a575f8281526005602090815260408083206001600160a01b03851684529091529020805460ff19166001179055620002393390565b6001600160a01b0316816001600160a01b0316837f2f8788117e7eff1d82e926ec794901d17c78024a50270940304540a733656f0d60405160405180910390a45b5050565b5f80829050601f81511115620002b4578260405163305a27a960e01b8152600401620002ab919062000431565b60405180910390fd5b8051620002c1826200047e565b179392505050565b634e487b7160e01b5f52604160045260245ffd5b600181811c90821680620002f257607f821691505b6020821081036200031157634e487b7160e01b5f52602260045260245ffd5b50919050565b601f82111562000364575f81815260208120601f850160051c810160208610156200033f5750805b601f850160051c820191505b8181101562000360578281556001016200034b565b5050505b505050565b81516001600160401b03811115620003855762000385620002c9565b6200039d81620003968454620002dd565b8462000317565b602080601f831160018114620003d3575f8415620003bb5750858301515b5f19600386901b1c1916600185901b17855562000360565b5f85815260208120601f198616915b828110156200040357888601518255948401946001909101908401620003e2565b50858210156200042157878501515f19600388901b60f8161c191681555b5050505050600190811b01905550565b5f6020808352835180828501525f5b818110156200045e5785810183015185820160400152820162000440565b505f604082860101526040601f19601f8301168501019250505092915050565b8051602080830151919081101562000311575f1960209190910360031b1b16919050565b60805160a05160c05160e0516101005161012051610140516131f4620004f45f395f610ab401525f610a8901525f61184f01525f61182701525f61178201525f6117ac01525f6117d601526131f45ff3fe608060405234801561000f575f80fd5b506004361061021b575f3560e01c806370a0823111610123578063a217fddf116100b8578063d505accf11610088578063d547741f1161006e578063d547741f1461053d578063dd62ed3e14610550578063f1127ed814610595575f80fd5b8063d505accf14610503578063d539139314610516575f80fd5b8063a217fddf146104c3578063a457c2d7146104ca578063a9059cbb146104dd578063c3cda520146104f0575f80fd5b806391d14854116100f357806391d148541461044457806391ddadf41461048957806395d89b41146104a85780639ab24eb0146104b0575f80fd5b806370a08231146103ce5780637ecebe001461040357806384b0196e146104165780638e539e8c14610431575f80fd5b80633644e515116101b357806340c10f1911610183578063587cde1e11610169578063587cde1e146103365780635c19a95c146103935780636fcfff45146103a6575f80fd5b806340c10f191461031b5780634bf5d7e91461032e575f80fd5b80633644e515146102da57806336568abe146102e257806339509351146102f55780633a46b1a814610308575f80fd5b806323b872dd116101ee57806323b872dd14610281578063248a9ca3146102945780632f2ff15d146102b6578063313ce567146102cb575f80fd5b806301ffc9a71461021f57806306fdde0314610247578063095ea7b31461025c57806318160ddd1461026f575b5f80fd5b61023261022d366004612bdf565b6105e7565b60405190151581526020015b60405180910390f35b61024f61067f565b60405161023e9190612c89565b61023261026a366004612cc3565b61070f565b6002545b60405190815260200161023e565b61023261028f366004612ceb565b610726565b6102736102a2366004612d24565b5f9081526005602052604090206001015490565b6102c96102c4366004612d3b565b610749565b005b6040516012815260200161023e565b610273610772565b6102c96102f0366004612d3b565b610780565b610232610303366004612cc3565b610838565b610273610316366004612cc3565b610883565b6102c9610329366004612cc3565b610931565b61024f610965565b61036e610344366004612d65565b73ffffffffffffffffffffffffffffffffffffffff9081165f908152600a60205260409020541690565b60405173ffffffffffffffffffffffffffffffffffffffff909116815260200161023e565b6102c96103a1366004612d65565b610a17565b6103b96103b4366004612d65565b610a24565b60405163ffffffff909116815260200161023e565b6102736103dc366004612d65565b73ffffffffffffffffffffffffffffffffffffffff165f9081526020819052604090205490565b610273610411366004612d65565b610a52565b61041e610a7c565b60405161023e9796959493929190612d7e565b61027361043f366004612d24565b610b1f565b610232610452366004612d3b565b5f91825260056020908152604080842073ffffffffffffffffffffffffffffffffffffffff93909316845291905290205460ff1690565b610491610ba3565b60405165ffffffffffff909116815260200161023e565b61024f610bad565b6102736104be366004612d65565b610bbc565b6102735f81565b6102326104d8366004612cc3565b610c9c565b6102326104eb366004612cc3565b610d6c565b6102c96104fe366004612e4b565b610d79565b6102c9610511366004612e9f565b610eef565b6102737f9f2df0fed2c77648de5860a4cc508cd0818c85b8b8a1ab4ceeef8d981c8956a681565b6102c961054b366004612d3b565b6110ab565b61027361055e366004612f04565b73ffffffffffffffffffffffffffffffffffffffff9182165f90815260016020908152604080832093909416825291909152205490565b6105a86105a3366004612f2c565b6110cf565b60408051825163ffffffff1681526020928301517bffffffffffffffffffffffffffffffffffffffffffffffffffffffff16928101929092520161023e565b5f7fffffffff0000000000000000000000000000000000000000000000000000000082167f7965db0b00000000000000000000000000000000000000000000000000000000148061067957507f01ffc9a7000000000000000000000000000000000000000000000000000000007fffffffff000000000000000000000000000000000000000000000000000000008316145b92915050565b60606003805461068e90612f69565b80601f01602080910402602001604051908101604052809291908181526020018280546106ba90612f69565b80156107055780601f106106dc57610100808354040283529160200191610705565b820191905f5260205f20905b8154815290600101906020018083116106e857829003601f168201915b5050505050905090565b5f3361071c818585611172565b5060019392505050565b5f33610733858285611324565b61073e8585856113fa565b506001949350505050565b5f828152600560205260409020600101546107638161166d565b61076d8383611677565b505050565b5f61077b611769565b905090565b73ffffffffffffffffffffffffffffffffffffffff8116331461082a576040517f08c379a000000000000000000000000000000000000000000000000000000000815260206004820152602f60248201527f416363657373436f6e74726f6c3a2063616e206f6e6c792072656e6f756e636560448201527f20726f6c657320666f722073656c66000000000000000000000000000000000060648201526084015b60405180910390fd5b610834828261189f565b5050565b335f81815260016020908152604080832073ffffffffffffffffffffffffffffffffffffffff8716845290915281205490919061071c908290869061087e908790612fe1565b611172565b5f61088c610ba3565b65ffffffffffff1682106108fc576040517f08c379a000000000000000000000000000000000000000000000000000000000815260206004820152601960248201527f4552433230566f7465733a20667574757265206c6f6f6b7570000000000000006044820152606401610821565b73ffffffffffffffffffffffffffffffffffffffff83165f908152600b6020526040902061092a9083611958565b9392505050565b7f9f2df0fed2c77648de5860a4cc508cd0818c85b8b8a1ab4ceeef8d981c8956a661095b8161166d565b61076d8383611a82565b606043610970610ba3565b65ffffffffffff16146109df576040517f08c379a000000000000000000000000000000000000000000000000000000000815260206004820152601d60248201527f4552433230566f7465733a2062726f6b656e20636c6f636b206d6f64650000006044820152606401610821565b5060408051808201909152601d81527f6d6f64653d626c6f636b6e756d6265722666726f6d3d64656661756c74000000602082015290565b610a213382611a8c565b50565b73ffffffffffffffffffffffffffffffffffffffff81165f908152600b602052604081205461067990611b29565b73ffffffffffffffffffffffffffffffffffffffff81165f90815260086020526040812054610679565b5f60608082808083610aaf7f00000000000000000000000000000000000000000000000000000000000000006006611bc2565b610ada7f00000000000000000000000000000000000000000000000000000000000000006007611bc2565b604080515f808252602082019092527f0f000000000000000000000000000000000000000000000000000000000000009b939a50919850469750309650945092509050565b5f610b28610ba3565b65ffffffffffff168210610b98576040517f08c379a000000000000000000000000000000000000000000000000000000000815260206004820152601960248201527f4552433230566f7465733a20667574757265206c6f6f6b7570000000000000006044820152606401610821565b610679600c83611958565b5f61077b43611c6b565b60606004805461068e90612f69565b73ffffffffffffffffffffffffffffffffffffffff81165f908152600b60205260408120548015610c755773ffffffffffffffffffffffffffffffffffffffff83165f908152600b6020526040902080547fffffffffffffffffffffffffffffffffffffffffffffffffffffffffffffffff8301908110610c3f57610c3f613021565b5f9182526020909120015464010000000090047bffffffffffffffffffffffffffffffffffffffffffffffffffffffff16610c77565b5f5b7bffffffffffffffffffffffffffffffffffffffffffffffffffffffff169392505050565b335f81815260016020908152604080832073ffffffffffffffffffffffffffffffffffffffff8716845290915281205490919083811015610d5f576040517f08c379a000000000000000000000000000000000000000000000000000000000815260206004820152602560248201527f45524332303a2064656372656173656420616c6c6f77616e63652062656c6f7760448201527f207a65726f0000000000000000000000000000000000000000000000000000006064820152608401610821565b61073e8286868403611172565b5f3361071c8185856113fa565b83421115610de3576040517f08c379a000000000000000000000000000000000000000000000000000000000815260206004820152601d60248201527f4552433230566f7465733a207369676e617475726520657870697265640000006044820152606401610821565b604080517fe48329057bfd03d55e49b547132e39cffd9c1820ad7b9d4c5307691425d15adf602082015273ffffffffffffffffffffffffffffffffffffffff88169181019190915260608101869052608081018590525f90610e6990610e619060a00160405160208183030381529060405280519060200120611d02565b858585611d49565b9050610e7481611d6f565b8614610edc576040517f08c379a000000000000000000000000000000000000000000000000000000000815260206004820152601960248201527f4552433230566f7465733a20696e76616c6964206e6f6e6365000000000000006044820152606401610821565b610ee68188611a8c565b50505050505050565b83421115610f59576040517f08c379a000000000000000000000000000000000000000000000000000000000815260206004820152601d60248201527f45524332305065726d69743a206578706972656420646561646c696e650000006044820152606401610821565b5f7f6e71edae12b1b97f4d1f60370fef10105fa2faae0126114a169c64845d6126c9888888610f878c611d6f565b60408051602081019690965273ffffffffffffffffffffffffffffffffffffffff94851690860152929091166060840152608083015260a082015260c0810186905260e0016040516020818303038152906040528051906020012090505f610fee82611d02565b90505f610ffd82878787611d49565b90508973ffffffffffffffffffffffffffffffffffffffff168173ffffffffffffffffffffffffffffffffffffffff1614611094576040517f08c379a000000000000000000000000000000000000000000000000000000000815260206004820152601e60248201527f45524332305065726d69743a20696e76616c6964207369676e617475726500006044820152606401610821565b61109f8a8a8a611172565b50505050505050505050565b5f828152600560205260409020600101546110c58161166d565b61076d838361189f565b604080518082019091525f808252602082015273ffffffffffffffffffffffffffffffffffffffff83165f908152600b60205260409020805463ffffffff841690811061111e5761111e613021565b5f9182526020918290206040805180820190915291015463ffffffff8116825264010000000090047bffffffffffffffffffffffffffffffffffffffffffffffffffffffff16918101919091529392505050565b73ffffffffffffffffffffffffffffffffffffffff8316611214576040517f08c379a0000000000000000000000000000000000000000000000000000000008152602060048201526024808201527f45524332303a20617070726f76652066726f6d20746865207a65726f2061646460448201527f72657373000000000000000000000000000000000000000000000000000000006064820152608401610821565b73ffffffffffffffffffffffffffffffffffffffff82166112b7576040517f08c379a000000000000000000000000000000000000000000000000000000000815260206004820152602260248201527f45524332303a20617070726f766520746f20746865207a65726f20616464726560448201527f73730000000000000000000000000000000000000000000000000000000000006064820152608401610821565b73ffffffffffffffffffffffffffffffffffffffff8381165f8181526001602090815260408083209487168084529482529182902085905590518481527f8c5be1e5ebec7d5bd14f71427d1e84f3dd0314c0f7b2291e5b200ac8c7c3b925910160405180910390a3505050565b73ffffffffffffffffffffffffffffffffffffffff8381165f908152600160209081526040808320938616835292905220547fffffffffffffffffffffffffffffffffffffffffffffffffffffffffffffffff81146113f457818110156113e7576040517f08c379a000000000000000000000000000000000000000000000000000000000815260206004820152601d60248201527f45524332303a20696e73756666696369656e7420616c6c6f77616e63650000006044820152606401610821565b6113f48484848403611172565b50505050565b73ffffffffffffffffffffffffffffffffffffffff831661149d576040517f08c379a000000000000000000000000000000000000000000000000000000000815260206004820152602560248201527f45524332303a207472616e736665722066726f6d20746865207a65726f20616460448201527f64726573730000000000000000000000000000000000000000000000000000006064820152608401610821565b73ffffffffffffffffffffffffffffffffffffffff8216611540576040517f08c379a000000000000000000000000000000000000000000000000000000000815260206004820152602360248201527f45524332303a207472616e7366657220746f20746865207a65726f206164647260448201527f65737300000000000000000000000000000000000000000000000000000000006064820152608401610821565b73ffffffffffffffffffffffffffffffffffffffff83165f90815260208190526040902054818110156115f5576040517f08c379a000000000000000000000000000000000000000000000000000000000815260206004820152602660248201527f45524332303a207472616e7366657220616d6f756e742065786365656473206260448201527f616c616e636500000000000000000000000000000000000000000000000000006064820152608401610821565b73ffffffffffffffffffffffffffffffffffffffff8481165f81815260208181526040808320878703905593871680835291849020805487019055925185815290927fddf252ad1be2c89b69c2b068fc378daa952ba7f163c4a11628f55a4df523b3ef910160405180910390a36113f4848484611da3565b610a218133611dae565b5f82815260056020908152604080832073ffffffffffffffffffffffffffffffffffffffff8516845290915290205460ff16610834575f82815260056020908152604080832073ffffffffffffffffffffffffffffffffffffffff85168452909152902080547fffffffffffffffffffffffffffffffffffffffffffffffffffffffffffffff0016600117905561170b3390565b73ffffffffffffffffffffffffffffffffffffffff168173ffffffffffffffffffffffffffffffffffffffff16837f2f8788117e7eff1d82e926ec794901d17c78024a50270940304540a733656f0d60405160405180910390a45050565b5f3073ffffffffffffffffffffffffffffffffffffffff7f0000000000000000000000000000000000000000000000000000000000000000161480156117ce57507f000000000000000000000000000000000000000000000000000000000000000046145b156117f857507f000000000000000000000000000000000000000000000000000000000000000090565b61077b604080517f8b73c3c69bb8fe3d512ecc4cf759cc79239f7b179b0ffacaa9a75d522b39400f60208201527f0000000000000000000000000000000000000000000000000000000000000000918101919091527f000000000000000000000000000000000000000000000000000000000000000060608201524660808201523060a08201525f9060c00160405160208183030381529060405280519060200120905090565b5f82815260056020908152604080832073ffffffffffffffffffffffffffffffffffffffff8516845290915290205460ff1615610834575f82815260056020908152604080832073ffffffffffffffffffffffffffffffffffffffff8516808552925280832080547fffffffffffffffffffffffffffffffffffffffffffffffffffffffffffffff0016905551339285917ff6391f5c32d9c69d2a47ea670b442974b53935d1edc7fd64eb21e047a839171b9190a45050565b81545f90818160058111156119af575f61197184611e67565b61197b908561304e565b5f88815260209020909150869082015463ffffffff16111561199f578091506119ad565b6119aa816001612fe1565b92505b505b808210156119fa575f6119c28383611f4b565b5f88815260209020909150869082015463ffffffff1611156119e6578091506119f4565b6119f1816001612fe1565b92505b506119af565b8015611a58575f8681526020902081017fffffffffffffffffffffffffffffffffffffffffffffffffffffffffffffffff015464010000000090047bffffffffffffffffffffffffffffffffffffffffffffffffffffffff16611a5a565b5f5b7bffffffffffffffffffffffffffffffffffffffffffffffffffffffff169695505050505050565b6108348282611f65565b73ffffffffffffffffffffffffffffffffffffffff8281165f818152600a60208181526040808420805485845282862054949093528787167fffffffffffffffffffffffff00000000000000000000000000000000000000008416811790915590519190951694919391928592917f3134e8a2e6d97e929a7e54011ea5485d7d196dd5f0ba4d4ef95803e8e3fc257f9190a46113f482848361202b565b5f63ffffffff821115611bbe576040517f08c379a000000000000000000000000000000000000000000000000000000000815260206004820152602660248201527f53616665436173743a2076616c756520646f65736e27742066697420696e203360448201527f32206269747300000000000000000000000000000000000000000000000000006064820152608401610821565b5090565b606060ff8314611bdc57611bd5836121cd565b9050610679565b818054611be890612f69565b80601f0160208091040260200160405190810160405280929190818152602001828054611c1490612f69565b8015611c5f5780601f10611c3657610100808354040283529160200191611c5f565b820191905f5260205f20905b815481529060010190602001808311611c4257829003601f168201915b50505050509050610679565b5f65ffffffffffff821115611bbe576040517f08c379a000000000000000000000000000000000000000000000000000000000815260206004820152602660248201527f53616665436173743a2076616c756520646f65736e27742066697420696e203460448201527f38206269747300000000000000000000000000000000000000000000000000006064820152608401610821565b5f610679611d0e611769565b836040517f19010000000000000000000000000000000000000000000000000000000000008152600281019290925260228201526042902090565b5f805f611d588787878761220a565b91509150611d65816122f2565b5095945050505050565b73ffffffffffffffffffffffffffffffffffffffff81165f9081526008602052604090208054600181018255905b50919050565b61076d8383836124a4565b5f82815260056020908152604080832073ffffffffffffffffffffffffffffffffffffffff8516845290915290205460ff1661083457611ded816124e2565b611df8836020612501565b604051602001611e09929190613061565b604080517fffffffffffffffffffffffffffffffffffffffffffffffffffffffffffffffe0818403018152908290527f08c379a000000000000000000000000000000000000000000000000000000000825261082191600401612c89565b5f815f03611e7657505f919050565b5f6001611e828461273e565b901c6001901b90506001818481611e9b57611e9b6130e1565b048201901c90506001818481611eb357611eb36130e1565b048201901c90506001818481611ecb57611ecb6130e1565b048201901c90506001818481611ee357611ee36130e1565b048201901c90506001818481611efb57611efb6130e1565b048201901c90506001818481611f1357611f136130e1565b048201901c90506001818481611f2b57611f2b6130e1565b048201901c905061092a81828581611f4557611f456130e1565b046127d1565b5f611f59600284841861310e565b61092a90848416612fe1565b611f6f82826127e6565b6002547bffffffffffffffffffffffffffffffffffffffffffffffffffffffff101561201d576040517f08c379a000000000000000000000000000000000000000000000000000000000815260206004820152603060248201527f4552433230566f7465733a20746f74616c20737570706c79207269736b73206f60448201527f766572666c6f77696e6720766f746573000000000000000000000000000000006064820152608401610821565b6113f4600c6128de836128e9565b8173ffffffffffffffffffffffffffffffffffffffff168373ffffffffffffffffffffffffffffffffffffffff161415801561206657505f81115b1561076d5773ffffffffffffffffffffffffffffffffffffffff83161561211a5773ffffffffffffffffffffffffffffffffffffffff83165f908152600b6020526040812081906120ba90612ae7856128e9565b915091508473ffffffffffffffffffffffffffffffffffffffff167fdec2bacdd2f05b59de34da9b523dff8be42e5e38e818c82fdb0bae774387a724838360405161210f929190918252602082015260400190565b60405180910390a250505b73ffffffffffffffffffffffffffffffffffffffff82161561076d5773ffffffffffffffffffffffffffffffffffffffff82165f908152600b602052604081208190612169906128de856128e9565b915091508373ffffffffffffffffffffffffffffffffffffffff167fdec2bacdd2f05b59de34da9b523dff8be42e5e38e818c82fdb0bae774387a72483836040516121be929190918252602082015260400190565b60405180910390a25050505050565b60605f6121d983612af2565b6040805160208082528183019092529192505f91906020820181803683375050509182525060208101929092525090565b5f807f7fffffffffffffffffffffffffffffff5d576e7357a4501ddfe92f46681b20a083111561223f57505f905060036122e9565b604080515f8082526020820180845289905260ff881692820192909252606081018690526080810185905260019060a0016020604051602081039080840390855afa158015612290573d5f803e3d5ffd5b50506040517fffffffffffffffffffffffffffffffffffffffffffffffffffffffffffffffe0015191505073ffffffffffffffffffffffffffffffffffffffff81166122e3575f600192509250506122e9565b91505f90505b94509492505050565b5f81600481111561230557612305613146565b0361230d5750565b600181600481111561232157612321613146565b03612388576040517f08c379a000000000000000000000000000000000000000000000000000000000815260206004820152601860248201527f45434453413a20696e76616c6964207369676e617475726500000000000000006044820152606401610821565b600281600481111561239c5761239c613146565b03612403576040517f08c379a000000000000000000000000000000000000000000000000000000000815260206004820152601f60248201527f45434453413a20696e76616c6964207369676e6174757265206c656e677468006044820152606401610821565b600381600481111561241757612417613146565b03610a21576040517f08c379a000000000000000000000000000000000000000000000000000000000815260206004820152602260248201527f45434453413a20696e76616c6964207369676e6174757265202773272076616c60448201527f75650000000000000000000000000000000000000000000000000000000000006064820152608401610821565b73ffffffffffffffffffffffffffffffffffffffff8381165f908152600a602052604080822054858416835291205461076d9291821691168361202b565b606061067973ffffffffffffffffffffffffffffffffffffffff831660145b60605f61250f836002613173565b61251a906002612fe1565b67ffffffffffffffff81111561253257612532612ff4565b6040519080825280601f01601f19166020018201604052801561255c576020820181803683370190505b5090507f3000000000000000000000000000000000000000000000000000000000000000815f8151811061259257612592613021565b60200101907effffffffffffffffffffffffffffffffffffffffffffffffffffffffffffff191690815f1a9053507f7800000000000000000000000000000000000000000000000000000000000000816001815181106125f4576125f4613021565b60200101907effffffffffffffffffffffffffffffffffffffffffffffffffffffffffffff191690815f1a9053505f61262e846002613173565b612639906001612fe1565b90505b60018111156126d5577f303132333435363738396162636465660000000000000000000000000000000085600f166010811061267a5761267a613021565b1a60f81b82828151811061269057612690613021565b60200101907effffffffffffffffffffffffffffffffffffffffffffffffffffffffffffff191690815f1a90535060049490941c936126ce8161318a565b905061263c565b50831561092a576040517f08c379a000000000000000000000000000000000000000000000000000000000815260206004820181905260248201527f537472696e67733a20686578206c656e67746820696e73756666696369656e746044820152606401610821565b5f80608083901c1561275257608092831c92015b604083901c1561276457604092831c92015b602083901c1561277657602092831c92015b601083901c1561278857601092831c92015b600883901c1561279a57600892831c92015b600483901c156127ac57600492831c92015b600283901c156127be57600292831c92015b600183901c156106795760010192915050565b5f8183106127df578161092a565b5090919050565b73ffffffffffffffffffffffffffffffffffffffff8216612863576040517f08c379a000000000000000000000000000000000000000000000000000000000815260206004820152601f60248201527f45524332303a206d696e7420746f20746865207a65726f2061646472657373006044820152606401610821565b8060025f8282546128749190612fe1565b909155505073ffffffffffffffffffffffffffffffffffffffff82165f81815260208181526040808320805486019055518481527fddf252ad1be2c89b69c2b068fc378daa952ba7f163c4a11628f55a4df523b3ef910160405180910390a36108345f8383611da3565b5f61092a8284612fe1565b82545f908190818115612967575f8781526020902082017fffffffffffffffffffffffffffffffffffffffffffffffffffffffffffffffff0160408051808201909152905463ffffffff8116825264010000000090047bffffffffffffffffffffffffffffffffffffffffffffffffffffffff16602082015261297b565b604080518082019091525f80825260208201525b905080602001517bffffffffffffffffffffffffffffffffffffffffffffffffffffffff1693506129b084868863ffffffff16565b92505f821180156129d857506129c4610ba3565b65ffffffffffff16815f015163ffffffff16145b15612a4f576129e683612b32565b5f8881526020902083017fffffffffffffffffffffffffffffffffffffffffffffffffffffffffffffffff0180547bffffffffffffffffffffffffffffffffffffffffffffffffffffffff929092166401000000000263ffffffff909216919091179055612add565b866040518060400160405280612a73612a66610ba3565b65ffffffffffff16611b29565b63ffffffff168152602001612a8786612b32565b7bffffffffffffffffffffffffffffffffffffffffffffffffffffffff90811690915282546001810184555f938452602093849020835194909301519091166401000000000263ffffffff909316929092179101555b5050935093915050565b5f61092a828461304e565b5f60ff8216601f811115610679576040517fb3512b0c00000000000000000000000000000000000000000000000000000000815260040160405180910390fd5b5f7bffffffffffffffffffffffffffffffffffffffffffffffffffffffff821115611bbe576040517f08c379a000000000000000000000000000000000000000000000000000000000815260206004820152602760248201527f53616665436173743a2076616c756520646f65736e27742066697420696e203260448201527f32342062697473000000000000000000000000000000000000000000000000006064820152608401610821565b5f60208284031215612bef575f80fd5b81357fffffffff000000000000000000000000000000000000000000000000000000008116811461092a575f80fd5b5f5b83811015612c38578181015183820152602001612c20565b50505f910152565b5f8151808452612c57816020860160208601612c1e565b601f017fffffffffffffffffffffffffffffffffffffffffffffffffffffffffffffffe0169290920160200192915050565b602081525f61092a6020830184612c40565b803573ffffffffffffffffffffffffffffffffffffffff81168114612cbe575f80fd5b919050565b5f8060408385031215612cd4575f80fd5b612cdd83612c9b565b946020939093013593505050565b5f805f60608486031215612cfd575f80fd5b612d0684612c9b565b9250612d1460208501612c9b565b9150604084013590509250925092565b5f60208284031215612d34575f80fd5b5035919050565b5f8060408385031215612d4c575f80fd5b82359150612d5c60208401612c9b565b90509250929050565b5f60208284031215612d75575f80fd5b61092a82612c9b565b7fff00000000000000000000000000000000000000000000000000000000000000881681525f602060e081840152612db960e084018a612c40565b8381036040850152612dcb818a612c40565b6060850189905273ffffffffffffffffffffffffffffffffffffffff8816608086015260a0850187905284810360c086015285518082528387019250908301905f5b81811015612e2957835183529284019291840191600101612e0d565b50909c9b505050505050505050505050565b803560ff81168114612cbe575f80fd5b5f805f805f8060c08789031215612e60575f80fd5b612e6987612c9b565b95506020870135945060408701359350612e8560608801612e3b565b92506080870135915060a087013590509295509295509295565b5f805f805f805f60e0888a031215612eb5575f80fd5b612ebe88612c9b565b9650612ecc60208901612c9b565b95506040880135945060608801359350612ee860808901612e3b565b925060a0880135915060c0880135905092959891949750929550565b5f8060408385031215612f15575f80fd5b612f1e83612c9b565b9150612d5c60208401612c9b565b5f8060408385031215612f3d575f80fd5b612f4683612c9b565b9150602083013563ffffffff81168114612f5e575f80fd5b809150509250929050565b600181811c90821680612f7d57607f821691505b602082108103611d9d577f4e487b71000000000000000000000000000000000000000000000000000000005f52602260045260245ffd5b7f4e487b71000000000000000000000000000000000000000000000000000000005f52601160045260245ffd5b8082018082111561067957610679612fb4565b7f4e487b71000000000000000000000000000000000000000000000000000000005f52604160045260245ffd5b7f4e487b71000000000000000000000000000000000000000000000000000000005f52603260045260245ffd5b8181038181111561067957610679612fb4565b7f416363657373436f6e74726f6c3a206163636f756e742000000000000000000081525f8351613098816017850160208801612c1e565b7f206973206d697373696e6720726f6c652000000000000000000000000000000060179184019182015283516130d5816028840160208801612c1e565b01602801949350505050565b7f4e487b71000000000000000000000000000000000000000000000000000000005f52601260045260245ffd5b5f82613141577f4e487b71000000000000000000000000000000000000000000000000000000005f52601260045260245ffd5b500490565b7f4e487b71000000000000000000000000000000000000000000000000000000005f52602160045260245ffd5b808202811582820484141761067957610679612fb4565b5f8161319857613198612fb4565b507fffffffffffffffffffffffffffffffffffffffffffffffffffffffffffffffff019056fea26469706673582212205c00aa499e851fb125a4d0b05369c531f76f29cfb5bdefaf44917d39806a8a8864736f6c63430008150033",
  "linkReferences": {},
  "deployedLinkReferences": {}
}